:100000004BC0DBC164C063C062C061C060C05FC080
:100010005EC05DC05CC05BC05AC059C058C0090218
:100020002200010100800A09040000010300000011
:10003000092101010001221600070581030800645F
:100040001201100100000008C016DF0500010102C6
:100050000001140344006100740061005300740047
:100060006F00720065001803540065006D00700099
:100070006D006F006E00690074006F007200040371
:1000800009040600FF0901A101150026FF007508FB
:1000900095800900B20201C011241FBECFE5D1E056
:1000A000DEBFCDBF10E0A0E6B0E0ECEAF7E002C0B2
:1000B00005900D92A236B107D9F720E0A2E6B0E094
:1000C00001C01D92AB39B207E1F72FD36DC398CFB2
:1000D000CF93C62F2091700024FF07C0309171008C
:1000E00028E823272093710003C02AE5209370009D
:1000F000DC01E2E7F0E09C2F9E0F8D918193892F28
:100100008E1B1816D4F36C2F82E790E052D1CC5F8F
:10011000C0937000CF910895CF93DF9360918100D9
:10012000635067FDC4C080917E00CCE0D0E0C81B66
:10013000D109CB57DF4F80917D008D3209F0A6C0E9
:10014000683009F0B2C083EC809365008AE5809343
:100150006100109262008881807639F0CE01D2D29F
:10016000982F8F3F09F481C087C09A8110926E004A
:100170008981811106C010926F002EE630E092E076
:100180006FC0853019F49093820067C0863009F003
:100190004EC08B81813041F480E490E090938000E8
:1001A00080937F0092E13FC0823041F48EE190E085
:1001B0009093800080937F0092E235C08330F1F409
:1001C000911108C08EE790E09093800080937F00AB
:1001D00094E029C0913041F486E690E0909380004D
:1001E00080937F0098E11FC09230E1F482E590E0B7
:1001F0009093800080937F0094E115C0813241F498
:1002000080E390E09093800080937F0099E00BC0A2
:10021000823241F482E890E09093800080937F00E6
:1002200096E101C090E080E48093620025C08830B0
:1002300069F0893019F4909384000FC08A3049F036
:100240008B3059F48BE48093710007C024E830E0D0
:1002500002C02EE630E091E003C02EE630E090E0F0
:100260003093800020937F0007C0888187FD9E81A6
:1002700080E88093620007C08F81811104C08E8165
:10028000891708F4982F909360000FC08091620046
:1002900087FF0BC0CE0115D28F3F21F48EE18093F2
:1002A000610003C081111092600010928100809162
:1002B000610084FF4FC0809160008F3F09F44AC005
:1002C000C82F893008F0C8E08C1B809360009091A3
:1002D000650088E8892780936500CC2351F130912F
:1002E000620037FF08C06C2F86E690E0D0D1C82F9F
:1002F000893050F51EC080917F00909180002C2F96
:10030000280FA6E6B0E0FC0136FF06C034913D930D
:1003100031962E13FBCF04C031913D932E13FCCFA9
:1003200001962FEF2C0F820F911D909380008093E8
:100330007F006C2F86E690E03CD0CC5FCC3041F063
:100340008FEF8093600004C08FEF80936000CEE158
:10035000C093610084E196B3967031F48150D9F76F
:100360001092820010927C00DF91CF91089585B7A2
:10037000826085BF8BB780648BBFE0E7F0E08BE4E1
:1003800081838AE580830895A82FB92F80E090E0CB
:1003900041E050EA609530E009C02D9182279795A1
:1003A000879510F084279527305EC8F36F5FA8F318
:1003B0000895EADF8D939D930895CF93CFB7CF93A0
:1003C000C395B19BE9F7B19B0BC0B19B09C0B19B31
:1003D00007C0B19B05C0B19B03C0B19B01C0D5C094
:1003E0000F92DF93C0917E00DD27CB57DF4F012EA8
:1003F000B19B03C0DF910F90E6CF2F930F931F9314
:100400004F932FEF4F6F06B301FB20F95F933F939C
:1004100050E03BE065C016B30126502951FDC89558
:1004200056B3012701FB25F92F7306B3B1F050270E
:10043000102711FB26F906B22230F0F000C016B3E7
:10044000012701FB27F90126502906B22430E8F5DF
:100450004F77206816B30000F6CF50274F7D2062FB
:1004600006B2102F000000C006B300265029102746
:1004700011FB26F906B2E2CF4F7B06B3206400C021
:10048000DACF01265029167006B269F14E7F21603D
:10049000012F16B328C0002650294D7F06B22260D6
:1004A000102F29C0012650294B7F06B22460012F4E
:1004B0002DC016B301265029477F2860000006B2E0
:1004C0002EC04F7E06B3206130C0422706B3499349
:1004D00000265029102706B24FEF11FB20F9297F83
:1004E00016B379F2167059F10126502906B2012788
:1004F00001FB21F9237F06B371F200265029315008
:10050000D0F006B2102711FB22F9277E16B351F264
:1005100001265029012701FB06B223F92F7C49F25D
:10052000000006B3102711FB24F90026502906B25B
:100530002F7939F270CF10E41ABF002719C03B5051
:100540003195C31BD04010E41ABF0881033C09F168
:100550000B34F9F020917C001981110F1213EDCFAB
:100560004A81441F093651F10D3211F0013E29F73D
:10057000009383003F915F914F911F910F912F91B5
:10058000DF910F90CAB7C6FD1BCFCF91CFBFCF91E0
:10059000189520918300222369F310918100112383
:1005A00079F534307AF13093810020937D001091F9
:1005B0007E003BE0311B30937E0024C0009181001F
:1005C0000130F4F40AE54F7049F43091610034FDD4
:1005D0001AC000936100C5E6D0E019C030917000E8
:1005E00034FD11C000937000C1E7D0E010C00527B2
:1005F00010E000C021C0052710E0C89508BB14C05A
:100600003AE501C032ED032EC0E0D0E032E017B38E
:100610001660C19A08B317BB56E020E84FEF20FFE1
:10062000052708BB279517951C3F28F70000455262
:10063000B0F720FF0527279508BB17951C3FB8F694
:1006400029913A9561F7097F10918200110F08BB3B
:10065000C250D04011F010937C0010E41ABF026029
:1006600017B3197F402F497F54E05A95F1F708BB23
:1006700017BB48BB7FCF089508951F920F920FB606
:100680000F9211240F900FBE0F901F901895CF93CB
:1006900020916300C62F261708F4C22F4C2F50E07C
:1006A0006091640070E05BD0809164008C0F809357
:1006B0006400809163008C1B809363008C2FCF912A
:1006C0000895CF93209163002223C9F0C62F2617E7
:1006D00008F4C22F4C2F50E06091640070E04ED0BF
:1006E000809164008C0F80936400909163009C1B48
:1006F0009093630081E0992319F080E001C081E0CC
:10070000CF910895FC0190819076903259F48181C7
:10071000877F813039F480E8809363001092640011
:100720008FEF089580E0089508959EE088E10FB668
:10073000F894A89581BD0FBE91BD19DEB99A80E0ED
:10074000815041F0A895ECE1F0E13197F1F700C05C
:100750000000F6CFB9987894A895DEDCFDCFDC01D7
:10076000862FE82FE199FECF1FBA05C0EEBBE09AB5
:10077000E3950DB20D924150C8F70895DC01862F24
:1007800002C02D9104D04150E0F70895262FE19941
:10079000FECF1CBA1FBA8EBB2DBB0FB6F894E29ADF
:0C07A000E19A0FBE01960895F894FFCF77
:0207AC00FF5AF2
:00000001FF
